:020000040800F2
:10000000005000205D1C0008E91A0008EB1A0008E7
:10001000ED1A0008EF1A0008F11A000800000000AD
:10002000000000000000000000000000F31A0008BB
:10003000F51A000800000000F71A0008F91A000875
:10004000A51C0008A51C0008A51C0008A51C00088C
:10005000A51C0008A51C0008A51C0008A51C00087C
:10006000A51C0008A51C0008A51C0008A51C00086C
:10007000A51C0008A51C0008A51C0008A51C00085C
:10008000A51C0008A51C0008A51C0008A51C00084C
:10009000A51C0008A51C0008A51C0008A51C00083C
:1000A000A51C0008A51C0008A51C0008A51C00082C
:1000B000A51C0008A51C0008A51C0008A51C00081C
:1000C000A51C0008A51C0008A51C0008A51C00080C
:1000D000A51C0008A51C0008A51C0008A51C0008FC
:1000E000A51C0008A51C0008A51C000800000000B5
:1000F0000000000000000000000000000000000000
:0C01000000000000000000005FF808F1A3
:10010C0010B5054C237833B9044B13B10448AFF345
:10011C0000800123237010BD0C00002000000000A3
:10012C00F01C000808B5034B1BB103490348AFF39F
:10013C00008008BD0000000010000020F01C00082A
:10014C0010B504460E4B18784FF47A73B3FBF0F3EA
:10015C000C4A1068B0FBF3F000F050FB68B90F2CA0
:10016C0001D901200AE0002221464FF0FF3000F0B7
:10017C0011FB034B5C60002000E0012010BD00BFB0
:10018C00000000200800002008B5074A136843F05F
:10019C0010031360032000F0EBFA0020FFF7D0FFF0
:1001AC0001F04CFC002008BD00200240034A1168FD
:1001BC00034B1B780B441360704700BF28000020D2
:1001CC0000000020014B1868704700BF2800002079
:1001DC0038B50446FFF7F6FF0546B4F1FF3F02D0F1
:1001EC00044B1B781C44FFF7EDFF401BA042FAD3D5
:1001FC0038BD00BF00000020F0B583B005460C46AA
:10020C0000230193FFF7DEFF2B689A6812F4807FBE
:10021C0023D106465A6812F4807F03D1DB6A13F4AB
:10022C00700F24D04B4B1F68022000F0A3FFB7FBCC
:10023C00F0F02B681969484A11422FD1D96802F1A4
:10024C005C4211422AD11969444A114239D1DA6807
:10025C00434B1A4237D029273AE0AB6A43F02003CC
:10026C00AB62002385F82430012003B0F0BD2B686D
:10027C001B6813F0020F48D1B4F1FF3FF7D024B143
:10028C00FFF7A0FF801BA042F1D9AB6A43F0040337
:10029C00AB62002385F824300320E6E719692F4A66
:1002AC00114204D1D96802F16E4211420DD0196984
:1002BC002C4A0A405AB9DA682A4B13405BB1FC2726
:1002CC0006E0292704E0142702E0542700E0FC276D
:1002DC0007FB00F704E05427FAE7019B0133019375
:1002EC00019BBB4211D2B4F1FF3FF6D024B1FFF712
:1002FC0069FF801BA042F0D9AB6A43F00403AB62E8
:10030C00002385F824300320AFE72B686FF012022E
:10031C001A60AB6A43F40073AB622B689B6803F4FE
:10032C006023B3F5602F01D000209EE7EB686BB91A
:10033C00AB6A23F48073AB62AB6A13F4805F07D1B2
:10034C00AB6A43F00103AB6200208EE700208CE720
:10035C0000208AE7080000202449922492244912A4
:10036C0092244900499224000368D86C704700001D
:10037C0030B482B00023019390F82430012B00F0AC
:10038C008B800246012380F824304B68062B29D839
:10039C000568686B03EB8303053B1F249C4020EA34
:1003AC0004000C6804FA03F303436B630B68092B1A
:1003BC0038D91568E86803EB43031E3B07249C40BF
:1003CC0020EA04008C6804FA03F30343EB600B6827
:1003DC00103B012B34D90020002382F8243002B0CA
:1003EC0030BC70470C2B0ED80568286B03EB8303CD
:1003FC00233B1F249C4020EA04000C6804FA03F3FE
:10040C0003432B63D2E70568E86A03EB8303413BA4
:10041C001F249C4020EA04000C6804FA03F30343F5
:10042C00EB62C3E71568286903EB430307249C4080
:10043C0020EA04008C6804FA03F303432B61C6E73B
:10044C0013681648834205D0936A43F020039362E5
:10045C000120C1E7986810F4000F1BD1986840F494
:10046C00000098600B68102B01D00020B4E70C4BF7
:10047C001B680C49A1FB03139B0C03EB8303590072
:10048C00019102E0019B013B0193019B002BF9D1EF
:10049C000020A1E700209FE70220A0E700240140F4
:1004AC000800002083DE1B4330B583B0002301938A
:1004BC0003689A6812F0010F2ED19A6842F001027B
:1004CC009A60174B1B68174AA2FB03239B0C0193E2
:1004DC0002E0019B013B0193019B002BF9D10446E7
:1004EC00FFF770FE054623689B6813F0010F11D1CE
:1004FC00FFF768FE401B0228F5D9A36A43F01003EE
:10050C00A362E36A43F00103E362002384F824301E
:10051C00012002E0002000E0002003B030BD00BF4D
:10052C000800002083DE1B4390F82430012B6AD096
:10053C0010B50446012380F82430FFF7B5FF0246BE
:10054C0000285BD1A36A23F4407323F0010343F426
:10055C008073A36223682D498B4227D0A16A21F4B2
:10056C008011A162596811F4806F05D0A16A21F441
:10057C00405141F48051A162A16A11F4805F2BD0EB
:10058C00E16A21F00601E162002184F824106FF089
:10059C00020119602368996801F46021B1F5602F9C
:1005AC001DD0996841F4801199602AE0A1F5806111
:1005BC00496811F4702FD1D0A16A41F48011A16265
:1005CC001349496811F4806FD6D0A16A21F44051C7
:1005DC0041F48051A162CFE70021E162D4E70B49DD
:1005EC008B4204D0996841F4A001996009E0A1F50F
:1005FC008061496811F4702FD3D1F3E7002384F89C
:10060C002430104610BD02221046704700280140CD
:10061C000024014038B503689A6812F0010F01D12B
:10062C00002038BD04469A6822F001029A60FFF758
:10063C00C9FD054623689B6813F0010F0ED0FFF728
:10064C00C1FD401B0228F5D9A36A43F01003A36235
:10065C00E36A43F00103E3620120E2E70020E0E7F4
:10066C0000287FD038B50446836A002B33D020464F
:10067C00FFF7D0FFA36A13F010036DD100286BD1E4
:10068C00A26A22F4885222F0020242F00202A26212
:10069C006268E1690A43E56842EA4502A168B1F57E
:1006AC00807F21D001291CD0616901291FD02568C8
:1006BC00696821F469410B436B6021688D682A4B92
:1006CC002B4013438B60A368B3F5807F20D0012BA4
:1006DC001ED000211FE0C36280F8243000F0ECFF34
:1006EC00C5E74FF48073DFE74FF48073DCE735B96F
:1006FC00A169013943EA413343F40063D7E7A16AA6
:10070C0041F02001A162E16A41F00101E162CEE712
:10071C002369013B19052568EB6A23F470030B432D
:10072C00EB6223689968114B0B409A420BD0A36A79
:10073C0023F0120343F01003A362E36A43F00103B6
:10074C00E36201200DE00023E362A36A23F00303BC
:10075C0043F00103A36204E0A36A43F01003A36215
:10076C00012038BD01207047FDF7E1FFFE0E1FFF91
:10077C00074AD36823F4E0631B041B0C000200F44B
:10078C00E060184340F0BF6040F40030D060704728
:10079C0000ED00E030B4174BDB68C3F30223C3F168
:1007AC000704042C28BF04241D1D062D18D9033B57
:1007BC004FF0FF3505FA04F421EA0401994005FADB
:1007CC0003F322EA0303194300280BDB0901C9B226
:1007DC0000F1604000F5614080F8001330BC7047B8
:1007EC000023E5E700F00F000901C9B2024B1954D0
:1007FC00F4E700BF00ED00E014ED00E00138B0F1CB
:10080C00807F0AD2064B5860064AF02182F82310EA
:10081C000020986007221A6070470120704700BFC3
:10082C0010E000E000ED00E0042805D0054A136854
:10083C0023F0040313607047024A136843F0040367
:10084C001360704710E000E0704708B5FFF7FCFF3D
:10085C0008BD0000F0B482B000263546A1E0002CA3
:10086C0059D0012C00D1CE68FF2B68D88446FF2BC1
:10087C0068D8AC00DCF800200F27A74022EA07025A
:10088C0006FA04F42243CCF800204A6812F0805F88
:10089C0000F086805E4A946944F001049461926988
:1008AC0002F001020192019AAC08A71C594A52F8B5
:1008BC00272005F00307BF004FF00F0C0CFA07FCC4
:1008CC0022EA0C0C544A904242D002F580629042CB
:1008DC007FD002F5806290427DD002F5806290421A
:1008EC0034D0042235E04D4FBC4214D00BD94C4FC0
:1008FC00BC4210D007F58037BC420CD0A7F580174E
:10090C00BC42B1D107E0A7F58017BC4203D007F574
:10091C008037BC42A8D18C687CB1012C08D04261D4
:10092C000826A1E7CE6808369EE7CE680C369BE712
:10093C000261082698E7002696E7042694E700F162
:10094C00040C94E7A5F10804A40093E7032200E04B
:10095C000022BA4042EA0C0202342E4F47F82420FF
:10096C004A6812F4803F38D02E4C22681A43226019
:10097C004A6812F4003F36D02A4C62681A4362600F
:10098C004A6812F4801F34D0264CA2681A43A26025
:10099C004A6812F4001F32D0224CE2681343E36021
:1009AC0001350F2D31D80122AA400B6813409A4211
:1009BC00F6D14C68122CB8D095D8022CB2D07FF658
:1009CC004EAF032CB7D0112C7FF44EAFCE6804364B
:1009DC004AE70122BDE70222BBE7124C226822EA59
:1009EC0003022260C4E70F4C626822EA03026260D1
:1009FC00C6E70C4CA26822EA0302A260C8E7094CC5
:100A0C00E26822EA0303E360CAE702B0F0BC704775
:100A1C0000100240000001400008014000002110BD
:100A2C0000003110000401408368194201D10020FC
:100A3C0070470120704712B90904016170470161C8
:100A4C007047000082B0084B1B68084AA2FB0323C6
:100A5C005B0A00FB03F0019000BF019B5A1E019240
:100A6C00002BF9D102B0704708000020D34D621062
:100A7C0070B582B00446036813F0010F2CD0AB4B59
:100A8C005B6803F00C03042B1DD0A84B5B6803F0D0
:100A9C000C03082B12D06368B3F5803F41D0002BB8
:100AAC0055D103F1804303F504331A6822F48032E4
:100ABC001A601A6822F480221A6037E09B4B5B683C
:100ACC0013F4803FE7D0994B1B6813F4003F03D01D
:100ADC006368002B00F0AE81236813F0020F76D010
:100AEC00924B5B6813F00C0F5FD0904B5B6803F07C
:100AFC000C03082B54D02369002B00F08A808C4BFC
:100B0C0001221A60FFF75EFB0546884B1B6813F049
:100B1C00020F75D1FFF756FB401B0228F5D90320B5
:100B2C008BE1824A136843F480331360636843B3E8
:100B3C00FFF748FB05467D4B1B6813F4003FCBD1F8
:100B4C00FFF740FB401B6428F5D9032075E1B3F592
:100B5C00A02F09D0754B1A6822F480321A601A68DB
:100B6C0022F480221A60E1E703F18043A3F53C33C1
:100B7C001A6842F480221A601A6842F480321A60B1
:100B8C00D4E7FFF71FFB0546684B1B6813F4003FC7
:100B9C00A2D0FFF717FB401B6428F5D903204CE1CA
:100BAC00624B5B6813F4803FA5D1604B1B6813F05C
:100BBC00020F04D02369012B01D001203DE15B4AD7
:100BCC00136823F0F803616943EAC10313602368D7
:100BDC0013F0080F32D0A369002B5BD0554B0122C8
:100BEC001A60FFF7EFFA0546504B5B6A13F0020FE1
:100BFC0021D1FFF7E7FA401B0228F5D903201CE1AD
:100C0C004A4A136823F0F803616943EAC10313608D
:100C1C00DDE7474B00221A60FFF7D4FA0546434B39
:100C2C001B6813F0020FD2D0FFF7CCFA401B02283E
:100C3C00F5D9032001E10120FFF704FF236813F02D
:100C4C00040F00F09780394BDB6913F0805F33D1D0
:100C5C00364BDA6942F08052DA61DB6903F080537B
:100C6C000193019B0125344B1B6813F4807F25D025
:100C7C00E368012B36D0002B4CD103F1804303F5F4
:100C8C0004331A6A22F001021A621A6A22F0040270
:100C9C001A622CE0274B00221A60FFF793FA0546E4
:100CAC00224B5B6A13F0020FC8D0FFF78BFA401B84
:100CBC000228F5D90320C0E00025D4E71E4A1368AA
:100CCC0043F480731360FFF77DFA06461A4B1B68DA
:100CDC0013F4807FCCD1FFF775FA801B6428F5D90B
:100CEC000320AAE0114A136A43F001031362E3687C
:100CFC0073B3FFF767FA06460C4B1B6A13F0020F2F
:100D0C0037D1FFF75FFA801B41F288339842F3D951
:100D1C00032092E0052B11D0044B1A6A22F0010239
:100D2C001A621A6A22F004021A62E0E7001002400A
:100D3C00000042428004424200700040414B1A6A5B
:100D4C0042F004021A621A6A42F001021A62CEE7F9
:100D5C00FFF738FA06463B4B1B6A13F0020F08D01C
:100D6C00FFF730FA801B41F288339842F3D9032005
:100D7C0063E0E5B9E369002B5ED0324A526802F0B9
:100D8C000C02082A5BD0022B17D02F4B00221A60C2
:100D9C00FFF718FA04462B4B1B6813F0007F47D063
:100DAC00FFF710FA001B0228F5D9032045E0254A6D
:100DBC00D36923F08053D361DCE7234B00221A6004
:100DCC00FFF700FA05461F4B1B6813F0007F06D097
:100DDC00FFF7F8F9401B0228F5D903202DE0236A10
:100DEC00B3F5803F1AD017494B6823F47413226A69
:100DFC00606A024313434B60134B01221A60FFF7E6
:100E0C00E1F904460F4B1B6813F0007F0ED1FFF77E
:100E1C00D9F9001B0228F5D903200EE0094A5368C2
:100E2C0023F40033A1680B435360DCE7002004E09B
:100E3C00002002E0012000E0002002B070BD012083
:100E4C00FBE700BF001002406000424210B487B0C4
:100E5C00164C94E80F000DF1180C0CE90F00238AC6
:100E6C00ADF80430124B5B6803F00C02082A1AD15F
:100E7C00C3F38342624412F8102C13F4803F05D163
:100E8C000C4800FB02F007B010BC7047084B5B68C5
:100E9C00C3F34043634413F8143C074800FB02F0CF
:100EAC00B0FBF3F0EFE70448EDE700BF081D0008C6
:100EBC000010024000093D0000127A00594B1B68DB
:100ECC0003F007038B420CD2564A136823F0070336
:100EDC000B431360136803F007038B4201D001200E
:100EEC00704770B5036813F0020F06D04E4A536872
:100EFC0023F0F0038468234353600C4605460368D3
:100F0C0013F0010F52D04368012B23D0022B28D0B1
:100F1C00454A126812F0020F00F0828042494A687A
:100F2C0022F0030213434B60FFF74CF906466B6843
:100F3C00012B1DD0022B2AD03B4B5B6813F00C0FFE
:100F4C0034D0FFF73FF9801B41F288339842F3D934
:100F5C00032064E0344A126812F4003FDED1012011
:100F6C005DE0314A126812F0007FD7D1012056E0C3
:100F7C002D4B5B6803F00C03042B17D0FFF722F901
:100F8C00801B41F288339842F2D9032047E0264B6C
:100F9C005B6803F00C03082B08D0FFF713F9801BD8
:100FAC0041F288339842F2D9032038E01D4B1B687C
:100FBC0003F00703A3420CD91A4A136823F0070362
:100FCC0023431360136803F00703A34201D00120ED
:100FDC0025E02B6813F0040F06D0134A536823F452
:100FEC00E063E9680B4353602B6813F0080F07D0DC
:100FFC000D4A536823F46053296943EAC1035360D3
:10100C00FFF724FF084B5B68C3F30313074AD35C59
:10101C00D840074B18600020FFF792F8002070BDF5
:10102C000120FCE70020024000100240301D0008A7
:10103C0008000020014B1868704700BF0800002012
:10104C0008B5FFF7F7FF044B5B68C3F3C223034AF1
:10105C00D35CD84008BD00BF00100240401D000802
:10106C0070B582B00446036813F0010F34D03E4BC8
:10107C00DB6913F0805F48D13B4BDA6942F0805258
:10108C00DA61DB6903F080530193019B0125374B37
:10109C001B6813F4807F3AD0334B1B6A13F44073F4
:1010AC0011D0626802F440729A420CD02E4A136A34
:1010BC0023F440702E4901260E6000260E6010624B
:1010CC0013F0010F37D1284A136A23F44073616877
:1010DC000B431362002D3FD1236813F0020F06D08F
:1010EC00214A536823F44043A1680B43536023689F
:1010FC0013F0100F35D01C4A536823F48003E168B9
:10110C000B435360002002B070BD0025BFE7174AA7
:10111C00136843F480731360FFF754F80646134BBF
:10112C001B6813F4807FB7D1FFF74CF8801B642841
:10113C00F5D90320E7E7FFF745F806460A4B1B6A8B
:10114C0013F0020FBFD1FFF73DF8801B41F288333B
:10115C009842F3D90320D6E7D36923F08053D361A7
:10116C00BAE70020CFE700BF00100240007000403B
:10117C004004424230B587B00546384C94E80F0025
:10118C000DF1180C0CE90F00238AADF80430022D78
:10119C0050D0102D03D0012D2BD0002054E0304B1B
:1011AC005A681B6813F0807F50D0C2F3834306A9A2
:1011BC000B4413F8100C12F4803F16D0284B5B68CC
:1011CC00C3F340430B4413F8142C264BB3FBF2F33C
:1011DC0000FB03F0224B5B6813F4800F34D140000A
:1011EC00214BA3FB003040082EE0204B03FB00F00A
:1011FC00F0E71B4B1B6A40F202321A40B2F5817FBA
:10120C0026D003F44073B3F5007F04D0B3F5407FD0
:10121C0009D0002018E0124A526A12F0020FF5D0E1
:10122C0049F6404010E00E4B1B6813F4003F12D1FE
:10123C00002009E0FFF704FF094B5B68C3F381331F
:10124C0001335B00B0FBF3F007B030BD0020FBE7CF
:10125C004FF40040F8E74FF22440F5E71C1D00085E
:10126C000010024000127A00ABAAAAAA00093D00A5
:10127C0070B4036A23F001030362036A4268846951
:10128C0024F073040D6845EA040623F002048B680D
:10129C0023430D4DA84209D00B4DA8420DD04260FE
:1012AC0086614A684263036270BC704723F008038E
:1012BC00CC68234323F00403EEE722F440724C691C
:1012CC0014438A692243EAE7002C014030B4036AD4
:1012DC0023F480730362036A4268C46924F07304C4
:1012EC000D682C4323F400738D6843EA05230F4DDE
:1012FC00A84209D00D4DA8420ED04260C4614A6884
:10130C00C263036230BC704723F40063CD6843EAC8
:10131C00052323F48063EDE722F440524D6942EA41
:10132C0005128D6942EA0512E7E700BF002C014067
:10133C0030B4036A23F480530362036A4468C269BD
:10134C0022F4E6420D6842EA052223F400538D682C
:10135C0043EA0533074DA84206D04460C2614A688F
:10136C000264036230BC704724F480444D6944EA43
:10137C008514F2E7002C014003681B4A90420AD006
:10138C00B0F1804F07D0A2F59432904203D002F511
:10139C008062904203D123F070034A681343124ACF
:1013AC0090420AD0B0F1804F07D0A2F5943290420F
:1013BC0003D002F58062904203D123F44073CA68D3
:1013CC00134323F080034A69134303608B68C362A1
:1013DC000B688362044B984202D00123436170472F
:1013EC000B690363F9E700BF002C0140A8B110B5ED
:1013FC00044690F83D305BB1022384F83D30211D4A
:10140C002068FFF7B9FF012384F83D30002010BDA0
:10141C0080F83C3000F096FBEEE7012070470000AE
:10142C0030B4036A23F010030362036A44688269D0
:10143C0022F4E6420D6842EA052223F020038D686F
:10144C0043EA05130E4DA84209D00D4DA8420ED00B
:10145C00446082614A688263036230BC704723F047
:10146C008003CD6843EA051323F04003EDE724F431
:10147C0040644D6944EA85048D6944EA8504E7E7D4
:10148C00002C014038B590F83C30012B66D00D464D
:10149C000446012380F83C30022380F83D300C2AAE
:1014AC001AD8DFE802F0071919192019191934197B
:1014BC00191947000068FFF7DBFE2268936943F0B7
:1014CC00080393612268936923F0040393612268F3
:1014DC00936929690B439361012384F83D30002003
:1014EC0084F83C0038BD0068FFF79AFF22689369C6
:1014FC0043F4006393612268936923F480639361DE
:10150C0022689369296943EA01239361E4E700683F
:10151C00FFF7DCFE2268D36943F00803D36122682D
:10152C00D36923F00403D3612268D36929690B437F
:10153C00D361D1E70068FFF7FBFE2268D36943F45F
:10154C000063D3612268D36923F48063D36122687A
:10155C00D369296943EA0123D361BDE70220C1E7BE
:10156C0010B4012303FA01F4036A23EA04030362AF
:10157C00036A8A401343036210BC704710B50446DB
:10158C0001220068FFF7ECFF2368074A934206D05C
:10159C002268136843F001031360002010BD5A6CDD
:1015AC0042F400425A64F3E7002C014090F83C30BE
:1015BC00012B25D0012380F83C30CB6823F44073F9
:1015CC008A68134323F480634A68134323F400634B
:1015DC000A68134323F480530A69134323F400531A
:1015EC004A69134323F480438A69134323F4004369
:1015FC00134302685364002380F83C30184670474C
:10160C000220704790F83C30012B22D030B40122DC
:10161C0080F83C20022380F83D300468636823F096
:10162C0070036360046863680D682B43636004682F
:10163C00A36823F08003A3600468A36849680B4384
:10164C00A36080F83D20002380F83C30184630BC65
:10165C00704702207047000000B585B01348144B4A
:10166C00036000238360C36043614FF46022C26156
:10167C00436001230361FEF7F3FF68B90023019374
:10168C00012302930223039301A90848FEF770FE7D
:10169C0038B905B05DF804FB4321064800F02CF97D
:1016AC00ECE74D21034800F027F9F2E72C0000206D
:1016BC0000240140481D000802680E4B9A4200D0DD
:1016CC00704700B587B003F56C439A6942F4007219
:1016DC009A619B6903F400730193019B01230293AC
:1016EC000323039302A90448FFF7B4F807B05DF88D
:1016FC0004FB00BF00240140000801402DE9F0412B
:10170C0088B02B4B9A6942F010029A619A6902F0E8
:10171C0010020092009A9A6942F020029A619A692A
:10172C0002F020020192019A9A6942F004029A6135
:10173C009A6902F004020292029A9A6942F0080233
:10174C009A619B6903F008030393039BDFF86C8099
:10175C0000224FF470414046FFF76DF9154D002201
:10176C004FF480712846FFF766F94FF460430493F9
:10177C0000240594069404A90F48FFF76BF84FF466
:10178C00704304930127059706940226079604A933
:10179C004046FFF75FF84FF4807304930597069467
:1017AC00079604A92846FFF755F808B0BDE8F08164
:1017BC00001002400008014000100140000C0140E4
:1017CC0008B501224FF480410148FFF734F908BDF8
:1017DC00000C014008B500224FF480410148FFF78E
:1017EC002AF908BD000C014008B54FF4005104481B
:1017FC00FFF71AF908B1002008BD0120FCE700BF73
:10180C000010014008B501224FF400510148FFF7C8
:10181C0012F908BD000C014008B500224FF400512C
:10182C000148FFF708F908BD000C014008B500227B
:10183C004FF480510148FFF7FEF808BD000C014041
:10184C0008B501224FF480510148FFF7F4F808BDA8
:10185C00000C014008B501224FF480710148FFF7DC
:10186C00EAF808BD0008014008B501224FF4004118
:10187C000148FFF7E0F808BD000C014008B5002254
:10188C004FF400410148FFF7D6F808BD000C0140A9
:10189C0008B5FFF7DFFFFFF79DFFFFF7BDFFFFF771
:1018AC00C5FF08BD10B584B001900123029302233B
:1018BC000393094C01A92046FEF75AFD2046FEF77A
:1018CC0033FE64212046FEF797FC2046FEF74CFDC4
:1018DC0080B204B010BD00BF2C00002008B5FFF78B
:1018EC00AFFF0020FFF7DEFFC0F30F10014B1864B1
:1018FC0008BD00BF002C0140FEE7000000B595B00C
:10190C0002230A9301220E9210220F9211930023AC
:10191C0012934FF4A01313930AA8FFF7A9F850BB26
:10192C000F23059302230693002307934FF4806241
:10193C0008920993012105A8FFF7C0FAF8B9022310
:10194C0001930023039301A8FFF78AFBD8B9FFF793
:10195C0071FB0F4BA3FB00308009FEF74FFF0420F7
:10196C00FEF762FF002211464FF0FF30FEF712FF28
:10197C0015B05DF804FBA7210648FFF7BDFFB421A5
:10198C000448FFF7B9FFBA210248FFF7B5FF00BFC3
:10199C00D34D6210581D000808B5FEF7F5FBFFF794
:1019AC00ADFFFFF7ABFE00F0FBF8FFF755FE0C2187
:1019BC001F48FFF7E3FD1F4B0A221A6416E0FFF7DE
:1019CC0067FFFFF75BFFFFF745FF07E0FFF72EFF11
:1019DC00FFF700FFFFF720FFFFF750FF4FF48041A8
:1019EC001548FFF721F800B3FFF748FFFFF7FCFE9F
:1019FC000028EBD04FF400410F48FFF715F80128F1
:101A0C00DDD0FFF7DDFE0020FFF74CFFC0F30F1019
:101A1C00084B18644FF4FA70FEF7DAFBFFF7F2FE8E
:101A2C00FFF70EFFFFF720FFD8E7FFF757FFDBE7C5
:101A3C005C000020002C01400010014000B583B078
:101A4C00244B9A6942F001029A619A6902F00102F0
:101A5C000092009ADA6942F08052DA61DB6903F095
:101A6C0080530193019B0320FEF782FE0022114656
:101A7C006FF00B00FEF78EFE002211466FF00A008D
:101A8C00FEF788FE002211466FF00900FEF782FE79
:101A9C00002211466FF00400FEF77CFE0022114676
:101AAC006FF00300FEF776FE002211466FF0010086
:101ABC00FEF770FE002211464FF0FF30FEF76AFE73
:101ACC00054A536823F0E06343F00073536003B09E
:101ADC005DF804FB00100240000001407047FEE777
:101AEC00FEE7FEE7FEE770477047704708B5FEF764
:101AFC005DFBFEF7AAFE08BD0F4B1A6842F001020F
:101B0C001A6059680D4A0A405A601A6822F08472A9
:101B1C0022F480321A601A6822F480221A605A6801
:101B2C0022F4FE025A604FF41F029A60044B4FF0ED
:101B3C0000629A60704700BF001002400000FFF87E
:101B4C0000ED00E00268094B9A4200D0704782B069
:101B5C0003F564439A6942F400629A619B6903F449
:101B6C0000630193019B02B0704700BF002C014041
:101B7C000268094B9A4200D0704700B585B04FF40B
:101B8C000063009302230193039369460348FEF715
:101B9C0061FE05B05DF804FB002C0140000801401B
:101BAC0000B591B02748284B03601A2343600023EB
:101BBC008360FF22C260036143618361FFF716FCFF
:101BCC0000282AD100230E930F930EA91D48FFF76E
:101BDC0019FD38BB602307930023089309930B93DB
:101BEC000C930D930C2207A91648FFF74BFCF0B988
:101BFC000023009301930293039304934FF4005238
:101C0C000592069369460F48FFF7D0FCA0B90D4822
:101C1C00FFF7AEFF11B05DF804FB41210B48FFF755
:101C2C006BFECFE748210948FFF766FED2E7532148
:101C3C000648FFF761FEDBE75F210448FFF75CFE17
:101C4C00E5E700BF5C000020002C0140681D000887
:101C5C00002103E00B4B5B58435004310A480B4BFB
:101C6C0042189A42F6D30A4A02E0002342F8043B97
:101C7C00084B9A42F9D3FFF73FFF00F00FF8FFF73C
:101C8C008BFE7047801D0008000000200C00002017
:101C9C000C0000209C000020FEE7000070B5002521
:101CAC000C4E0D4CA41BA410A54209D100F01AF83F
:101CBC0000250A4E0A4CA41BA410A54205D170BDE8
:101CCC0056F8253098470135EEE756F825309847F9
:101CDC000135F2E7781D0008781D0008781D000812
:101CEC007C1D0008F8B500BFF8BC08BC9E467047C8
:0C1CFC00F8B500BFF8BC08BC9E4670475D
:101D080002030405060708090A0B0C0D0E0F101034
:101D18000102000002030405060708090A0B0C0D5E
:101D28000E0F10100102000000000000000000006B
:101D38000102030406070809000000000102030469
:101D48002E2E2F5372632F6164632E6300000000F0
:101D58002E2E2F5372632F6D61696E2E6300000063
:101D68002E2E2F5372632F74696D2E6300000000AE
:041D7800310100082D
:041D7C000D0100084D
:0C1D8000010000001000000000A24A0456
:0400000508001C5D76
:00000001FF
